:020000040800F2
:10000000C8050020A9010008B1010008B3010008DB
:10001000B5010008B7010008B901000800000000A0
:10002000000000000000000000000000BB0100080C
:10003000BD01000800000000BF0100088D1200088B
:10004000C3010008C3010008C3010008C301000880
:10005000C3010008C3010008C3010008C301000870
:10006000C3010008C3010008C3010008C301000860
:10007000C3010008C3010008C3010008C301000850
:10008000C3010008C3010008C3010008000000000C
:10009000000000000000000000000000C301000894
:1000A000C3010008C3010008C3010008C301000820
:1000B000C3010008C3010008C3010008C301000810
:1000C000C3010008C3010008C3010008C301000800
:1000D000C3010008C3010008C301000800000000BC
:1000E000C3010008C3010008C301000800000000AC
:1000F000000000000000000000000000C301000834
:1001000000000000C3010008C3010008C30100088B
:1001100000000000000000000000000000000000DF
:10012000C3010008C3010008C3010008C30100089F
:10013000C3010008000000000000000000000000F3
:10014000000000000000000000000000C3010008E3
:10015000C3010008C3010008C3010008C30100086F
:10016000C3010008C30100080000000000000000F7
:10017000000000000000000000000000000000007F
:1001800000000000C30100080000000000000000A3
:10019000C3010008DFF80CD000F07AF800480047EF
:1001A000891E0008C8050020064880470648004709
:1001B000FEE7FEE7FEE7FEE7FEE7FEE7FEE7FEE717
:1001C000FEE7FEE73D130008950100082DE9F05F0A
:1001D0000546002092469B468846064681464024B6
:1001E0001BE0284641464746224600F041F8534668
:1001F0005A46C01A914110D311461846224600F0C3
:1002000028F82D1A67EB01084F46224601200021ED
:1002100000F01FF817EB00094E41201EA4F1010465
:10022000DFDC484631462A464346BDE8F09FD2B25D
:1002300001E000F8012B491EFBD270470022F6E7CF
:1002400010B513460A4604461946FFF7F0FF20464C
:1002500010BD202A04DB203A00FA02F1002070478A
:100260009140C2F1200320FA03F3194390407047F4
:10027000202A04DB203A21FA02F00021704721FAFB
:1002800002F3D040C2F12002914008431946704762
:10029000064C074D06E0E06840F0010394E80700D3
:1002A00098471034AC42F6D3FFF778FFB01F000830
:1002B000D01F0008002229B101291AD002291BD021
:1002C0004FF440720E490B6823F440730B600B68C7
:1002D00013430B600A6822F0F8020A600A680223DE
:1002E00003EBC00002430A60086840F480300860F5
:1002F00070474FF48072E5E74FF40072E2E70000C8
:10030000103C02401348016889050FD5016821F4AB
:1003100000710160016841F400610160016821F42D
:1003200000610160016841F40071016001684905E4
:100330000FD5016821F480610160016841F48051AA
:100340000160016821F480510160016841F480611D
:1003500001607047003C024008490A6822F440727C
:100360000A600A6842F004020A600A684FF48033A7
:1003700043EA002002430A6070470000103C02403C
:10038000064A136823F440731360136813601368FC
:1003900043F001031360017070470000103C0240FD
:1003A000084910B50C6824F440740C600C6844F4DF
:1003B00040740C600C6844F001040C6002604360FF
:1003C00010BD0000103C0240074A136823F440733C
:1003D0001360136843F480731360136843F00103E0
:1003E0001360018070470000103C0240074A136808
:1003F00023F440731360136843F4007313601368AD
:1004000043F001031360016070470000103C02409C
:100410001C490868C2061C4805D5C26942F0100292
:10042000C26110220A600A68920605D5C26942F0CC
:100430000802C26120220A600A68520605D5C26914
:1004400042F00402C26140220A600A68120605D521
:10045000C26942F00202C26180220A600A68D205C3
:1004600006D5C26942F00102C2614FF480720A608F
:100470000A68920705D5C26942F02002C2610220D3
:10048000086070470C3C0240A801002070B511497B
:1004900004460020C86100F017FA06460E4D09E038
:1004A000601C07D024B100F00FFA801BA04201D9D4
:1004B000032070BD2868C003F2D42868C00701D0AB
:1004C00001202860286810F4F970F2D0FFF7A0FF2F
:1004D000012070BDA80100200C3C024070B50479D9
:1004E0000023012C04D0012404710225457106E08B
:1004F000022070BD066851F8235035605B1C9342A2
:10050000F8D34471002101710068006870BD10B516
:10051000040002D0607910B106E0012010BD002077
:100520002071204600F006F8022060710120607101
:10053000002010BD08B500680649884208D1064869
:10054000016841F480510160006800F4805000901F
:1005500008BD000000300240303802402DE9F0476D
:10056000044622480F46017E01290AD00121804617
:1005700001764CF250394846FFF788FF020003D05D
:100580002FE00220BDE8F0874FF0FF303860206890
:10059000174D012801D0A6681CE0207C6168FFF798
:1005A000DBFE4846FFF772FF0246286820F0040091
:1005B000286014E0217C3046FFF77CFE4846FFF7B8
:1005C00065FF0200286820F0FA00286001D03E6034
:1005D00005E0761CD4E902100844B042EAD8FFF7DF
:1005E00091FE002188F818101046CBE7A8010020E2
:1005F000103C02400F2101600D49098881600C4ABE
:10060000AA21521E1378CC2B03D01278552A02D07F
:1006100002E0CC2100E0552101610549891E0A68EC
:1006200002F0E0020276097801F00C0141617047A6
:10063000163C02400348016841F00041016000207F
:1006400070470000103C02400348016841F001017E
:100650000160002070470000143C0240064800681A
:10066000C00707D0044805490C38016004490160FF
:100670000020704701207047143C02403B2A1908B3
:100680007F6E5D4C2DE9F0471B4E05461446307ECB
:100690001F468946012808D0012030764CF2503898
:1006A0004046FFF7F3FE18B114E00220BDE8F087E2
:1006B0009DB1012D16D0022D19D022463B46484649
:1006C000FFF76EFE4046FFF7E1FE0C490A6822F094
:1006D00001020A6000213176E8E7E1B24846FFF7FF
:1006E0004FFEEFE7A1B24846FFF76EFEEAE721466C
:1006F0004846FFF77BFEE5E7A8010020103C0240DA
:10070000074900200A68002A09DA054A054B0C3A15
:100710001360054B13600968002900DA0120704757
:10072000103C024023016745AB89EFCD2DE9F84F1E
:10073000DFF860B100224FF001084FF0030A4FF0DC
:100740000F090BF1040E00BF0B6808FA02F42340F6
:10075000A3426ED14D68022D01D0122D0ED1D508C5
:1007600000EB850CDCF820505607F70E09FA07F667
:10077000B5430E69BE402E43CCF820600668550094
:100780000F790AFA05FC07F0030726EA0C06AF40CA
:10079000374307604E68012E05D0022E03D0112E7C
:1007A00001D0122E0ED18668CF6826EA0C06AF4023
:1007B000374387604668A6430C79C4F3001494401D
:1007C00034434460C6688C6826EA0C06AC40344367
:1007D000C4604C68E40056D52F4C256845F480452C
:1007E0002560246822F0030504F4804400942B4C17
:1007F0002E19D6F8084895072F0F09FA07F5AC43CC
:10080000274DA84201D1002515E0264DA84201D16F
:10081000012510E0244DA84201D102250BE0234D13
:10082000A84201D1032506E0214DA84202D10425AA
:1008300001E028E00725BD402543C6F80858DBF84D
:1008400000405D464E689C43F60300D51C432C6077
:10085000DEF8004075464E689C43B60300D51C4345
:100860002C600C4D08352C684E689C43F60200D570
:100870001C432C60074D0C352C684E689C43B60217
:1008800000D51C432C60521C102AFFF45DAFBDE85C
:10089000F88F0000003C0140443802400030014025
:1008A000000002400004024000080240000C024028
:1008B000001002400069084000D0012070470AB1D2
:1008C000816170470904FBE70148806870470000B8
:1008D000100000200248816802781144816070474E
:1008E000100000200B4810B5016841F40071016050
:1008F000016841F480610160016841F48071016028
:10090000032000F08BF8002000F006F800F024F837
:10091000002010BD003C024070B50D4D04464FF460
:100920007A712878B1FBF0F00A490968B1FBF0F060
:1009300000F00FFB48B9102C07D200222146501EB0
:1009400000F04CF800206C6070BD012070BD00000C
:10095000100000201C0000201F4808B5016841F469
:1009600080410160006800F4804000901A48001F38
:10097000016841F080510160006800F080500090F3
:10098000072000F04BF8002211466FF00B0000F03A
:1009900025F8002211466FF00A0000F01FF800222F
:1009A00011466FF0090000F019F800221146501F9F
:1009B00000F014F800221146101F00F00FF800227A
:1009C0001146901E00F00AF80022BDE808401146CA
:1009D000501E00F003B8000044380240F0B40E4B43
:1009E0001B680C46C3F30223C3F10705042D00D98D
:1009F0000425191D072901D2002300E0DB1E012672
:100A000006FA05F1491E214099409E40761E164087
:100A10003143F0BC00F02ABC0CED00E0064900F0C8
:100A2000070208684FF6FF03184040EA0220034A15
:100A300010430860704700000CED00E00000FA056C
:100A40002DE9F0470E46050065D0DFF81481D8F88F
:100A50000000F7B200F00F00B04207D288F8007033
:100A6000D8F8000000F00F00B04254D128683D4C87
:100A7000810712D5400703D5206840F4E05020607C
:100A80002878000703D5206840F460402060206883
:100A9000A96820F0F000084320602878C0072DD016
:100AA000304968680839012812D0022813D0032879
:100AB00011D00968890700292DDA216821F0030186
:100AC00001432160FFF700FF814641F2883A0EE0C2
:100AD00009688903EFE709688901ECE7FFF7F4FE8D
:100AE000A0EB0901514502D90320BDE8F087206839
:100AF000696800F00C00B0EB810FEFD1D8F800105E
:100B0000404601F00F01B14207D90770006800F0BC
:100B10000F00B04201D00120E7E72878400705D553
:100B20002068E96820F4E050084320602878000736
:100B300006D52068296920F4604040EAC1002060A1
:100B400000F03CF82168084AC1F30311515CC84029
:100B5000064908600020FFF7DFFE0020C5E700001F
:100B6000003C024008380240981F00081C0000208A
:100B700001480068704700001C0000200448054937
:100B800000680968044AC1F38221515CC84070477B
:100B90001C00002008380240A81F0008044805492E
:100BA00000680968044AC1F34231515CC84070478B
:100BB0001C00002008380240A81F0008154810B586
:100BC000006810F00C02144813D04110042A0FD012
:100BD000082A0ED10F4C241F2268236802F03F021E
:100BE0005B0207D52068C0F38810A0FB010106E076
:100BF000084610BD2168C1F38811A1FB0001002344
:100C0000FFF7E4FA2168C1F30141491C4900B0FB38
:100C1000F1F010BD083802400024F4002DE9F84F2F
:100C2000050076D02878DFF8F8B2BE4CC00749D06E
:100C3000DBF800105846C1F38101012908D0006893
:100C4000C0F3810002280AD1201D0068400206D5A9
:100C50002068800336D568680028E2D032E06868F2
:100C6000B0F5803F10D0B0F5A02F206810D020F450
:100C700080302060206820F4802020606868A0B167
:100C8000FFF722FE06460CE0206840F48030F4E7CF
:100C900040F480202060F7E7FFF716FE801B6428F1
:100CA00073D820688003F7D50CE0FFF70DFE0646E9
:100CB00005E000BFFFF708FE801B6428F0D820681D
:100CC0008003F7D42878DFF8608280074FF00009AE
:100CD0003ED5DBF80010584611F00C0F09D0006823
:100CE000C0F3810002280BD18D48001F006840022C
:100CF00006D42068800715D5E868012809D111E0DD
:100D0000E868B8B10120C8F80000FFF7DDFD06462D
:100D100005E002E1FFF7D8FD801B0228C0D820685B
:100D20008007F7D52068296920F0F80040EAC10063
:100D300020600DE0C8F80090FFF7C6FD064604E00D
:100D4000FFF7C2FD801B02281FD820688007F7D458
:100D50002878000722D5724E744869696C3671B1E3
:100D600001210160FFF7B0FD074604E0FFF7ACFD8D
:100D7000C01B022809D830688007F7D50EE0C0F8FC
:100D80000090FFF7A1FD074605E083E0FFF79CFD1B
:100D9000C01B02287ED830688007F7D42878400727
:100DA00068D5DFF87CA100270AF1380ADAF80000DC
:100DB000C0000BD4DAF8001041F08051CAF80010DE
:100DC000DAF80000012700F080500090584E30689B
:100DD000C00510D4306840F480703060FFF774FDB7
:100DE000009005E0FFF770FD0099401A022851D8E5
:100DF0003068C005F6D54A4EA868683601280FD07D
:100E00000528306810D020F001003060306820F0F4
:100E100004003060A868B8B1FFF756FD00900FE0FD
:100E2000306840F00100F4E740F004003060F7E77C
:100E3000FFF74AFD0099411A41F28830814264D897
:100E400030688007F4D50EE0FFF73EFD009007E024
:100E5000FFF73AFD0099411A41F28830814254D897
:100E600030688007F4D42FB1DAF8001021F08051F7
:100E7000CAF80010A869C0B3DBF80010C1F3810103
:100E800002294AD00228484607D0C8F86000FFF778
:100E90001BFD00E039E005463AE04746C8F860002F
:100EA000FFF712FD064604E0FFF70EFD801B022847
:100EB0002BD820688001F7D4D5E907010843A96A37
:100EC0001C4A490802EB01416A6A41EA821108435F
:100ED00095F82C1040EA01611148001F01600120C3
:100EE0003866FFF7F1FC054605E014E0FFF7ECFC7F
:100EF000401B022809D820688001F7D50BE000BF0D
:100F0000FFF7E2FC401B022802D90320BDE8F88F5E
:100F100020688001F4D40020F8E70120F6E7000003
:100F2000083802400038024000004742800E474225
:100F3000007000400000FFFF4FF0E0210428086926
:100F400003D020F004000861704740F00400FAE785
:100F5000704710B5401EB0F1807F01D3012010BD55
:100F60004FF0E02460610F21601700F07FF900204E
:100F7000A06107202061002010BD10B5FFF7E8FF39
:100F800010BD70B5040004D094F83900002510B1EC
:100F900006E0012070BD84F83850204600F022F8A9
:100FA000242084F839002068C16821F40051C16010
:100FB000204600F0EDF92068016921F490410161BB
:100FC0002068416921F02A0141612068C16841F42B
:100FD0000051C160E563202084F8390084F83A00AC
:100FE000002070BD00B500681A4B0021022287B0B6
:100FF000984212D11848036843F400330360006834
:1010000000F4003005900C200090CDE9012107206C
:10101000CDE903106946114817E01149884216D1FD
:101020000D48001D016841F020010160006869461B
:1010300000F020000590C020CDE9000201200290C0
:1010400003200390082004900648FFF76FFB07B0C9
:1010500000BD000000440040403802400000024053
:1010600000140140000802402DE9F843044690F8BE
:101070003A00994616460D4620284FD195B18EB1BB
:1010800094F83800012849D0012084F8380000275E
:10109000E763222084F83A00FFF716FCA685804615
:1010A000E68531E00120BDE8F883E08D401EE08553
:1010B000A0684346B0F5805F4FF000024FF020017A
:1010C0002046CDF8009004D000F0B8FA98B1032083
:1010D000E9E700F0B3FA0028F9D120690028206878
:1010E000406803D0C1B225F8011B0DE0C0F3080130
:1010F00025F8021B08E0206900282068406801D01C
:1011000000F07F0005F8010BE08D0028CDD12020F4
:1011100084F83A0084F838700020C4E70220C2E75F
:101120002DE9F843044690F839001F4616460D464F
:10113000202850D1A5B19EB194F8380001284AD09A
:10114000012084F838004FF00008C4F83C802120CA
:1011500084F83900FFF7B8FBA6848146E68426E0D0
:101160000120BDE8F883E08C401EE084A0684B4677
:10117000B0F5805F4FF000024FF0800120460097ED
:1011800003D000F05BFAE8B90DE000F057FAC8B9F7
:1011900028882168C0F308004860206908B16D1CE8
:1011A00005E0AD1C03E0216815F8010B4860E08CF8
:1011B0000028D8D14B46002240212046009700F05D
:1011C0003DFA08B10320CCE7202084F8390084F8E8
:1011D00038800020C5E70220C3E7000030B51F4873
:1011E00087B00024016841F004010160016801F04A
:1011F00004010591016841F080010160016801F07E
:1012000080010591016841F001010160016801F070
:1012100001010591016841F0020101600068104D73
:1012200000F002000590002220212846FFF747FB2E
:101230004FF4005000900B48CDE9010469460A487C
:10124000FFF774FA202000900120CDE901046946DF
:1012500028460394FFF76AFA07B030BD30380240E1
:101260000000024000002110000802400907090E9A
:10127000002806DA00F00F0000F1E02080F8141DCD
:10128000704700F1E02080F80014704710B5FFF7B8
:1012900021FBBDE81040FFF770BE000030B52548C7
:1012A00093B00024016841F080510160006800F0B3
:1012B000805011902048016821F4404141F40041E0
:1012C00001600068022500F4404011900120039065
:1012D0001020009506950490CDE907404FF4A870C2
:1012E000099004200A9007200B906846FFF796FCAF
:1012F00000B1FEE70F20CDE90C054FF48050CDE999
:101300000E4002210CA81094FFF79AFB00B1FEE7F3
:10131000FFF72EFC4FF47A71B0FBF1F0FFF719FEE6
:101320000420FFF709FE00221146501EFFF756FB6E
:1013300013B030BD403802400070004010480168D2
:1013400041F4700101600F48016841F00101016042
:101350000C4A00210832116002680B4B1A400260EF
:10136000031D0A4A1A60026822F4802202600548BE
:101370000C3001600249580680390860704700004F
:1013800088ED00E000380240FFFFF6FE1030002438
:101390002DE9F04104460068016921F44052E168FA
:1013A000114301612168C86849F20C6290432369C6
:1013B000A268E5691A4363692B431A430243CA6072
:1013C0002168486920F44072A06910434861E169CE
:1013D0006425B1F5004F9748974A21684FF03208CD
:1013E0003FD0914201D081427CD1FFF7D7FB00EB87
:1013F000C00101EB001061688900B0FBF1F6FFF756
:10140000CDFB00EBC00101EB001061688900B0FB6F
:10141000F1F0B0FBF5F06FF01801484306EB8001E6
:1014200008EB0110B0FBF5F000F0F006FFF7B6FB9B
:1014300000EBC00101EB001061688900B0FBF1F026
:10144000B0FBF5F006EB0016FFF7A8FB00EBC001C0
:1014500001EB001061688900B0FBF1F7FFF79EFB1C
:10146000D2E0914201D081423DD1FFF797FB00EBE2
:10147000C00101EB001061684900B0FBF1F0B0FB66
:10148000F5F00601FFF78AFB00EBC00101EB00104D
:1014900061684900B0FBF1F7FFF780FB00EBC0018A
:1014A00001EB001061684900B0FBF1F0B0FBF5F012
:1014B0006FF01801484307EB800108EBC100B0FB57
:1014C000F5F000F0F80006EB4006FFF767FB00EBD5
:1014D000C00101EB001061684900B0FBF1F7FFF7B4
:1014E0005DFB3CE055E0FFF749FB00EBC00101EB81
:1014F000001061684900B0FBF1F0B0FBF5F00601A7
:10150000FFF73CFB00EBC00101EB001061684900F4
:10151000B0FBF1F7FFF732FB00EBC00101EB00106D
:1015200061684900B0FBF1F0B0FBF5F06FF0180115
:10153000484307EB800108EBC100B0FBF5F000F079
:10154000F80006EB4006FFF719FB00EBC00101EBCA
:10155000001061684900B0FBF1F7FFF70FFB00EBEB
:10156000C00101EB001061684900B0FBF1F0B0FB75
:10157000F5F06FF01801484307EB800108EBC1005C
:10158000B0FBF5F000F00700216830448860BDE84A
:10159000F081FFF7F3FA00EBC00101EB0010616886
:1015A0008900B0FBF1F6FFF7E9FA00EBC00101EBAF
:1015B000001061688900B0FBF1F0B0FBF5F06FF04E
:1015C0001801484306EB800108EB0110B0FBF5F071
:1015D00000F0F006FFF7D2FA00EBC00101EB0010BB
:1015E00061688900B0FBF1F0B0FBF5F006EB001686
:1015F000FFF7C4FA00EBC00101EB0010616889003D
:10160000B0FBF1F7FFF7BAFA00EBC00101EB0010F5
:1016100061688900B0FBF1F0B0FBF5F06FF01801E4
:10162000484307EB800108EB0110B0FBF5F000F038
:101630000F00A9E700140140001001402DE9F0411E
:10164000984617460E460446069D1DE0681C1BD0B2
:101650002DB1FFF739F9A0EB0800A84214D9206892
:10166000C16821F4D071C1602068416921F0010195
:101670004161202084F8390084F83A00002084F881
:1016800038000320BDE8F0812068006836EA0000D9
:1016900004D00020B842D9D00020F3E70120F9E7B8
:1016A00002E008C8121F08C1002AFAD1704770472B
:1016B000002001E001C1121F002AFBD17047000089
:1016C00038B5044600208DF8000011480178491C07
:1016D0000844091F50F8042C0D4800F011FB10B10C
:1016E00000F0AAFA38BD2078012100F095FA002117
:1016F0000122084600F024FB8DF80000014605A0F9
:1017000000F026FC0121684600F0F0FA38BD000028
:10171000E0000020424C5F44454255475F4D53472F
:101720003A20666C6173682065726173652073741A
:10173000617475733A202523780A000038B5044691
:1017400000208DF8000011480178491C0844091F49
:1017500050F8042C0D4800F0D3FA10B100F06CFAE8
:1017600038BD2078012100F057FAE178A0780022F6
:1017700000F0E6FA8DF80000014605A000F0E8FB55
:101780000121684600F0B2FA38BD0000E0000020F8
:10179000424C5F44454255475F4D53473A20666C83
:1017A0006173682065726173652073746174757309
:1017B0003A202523780A000038B5044600208DF829
:1017C000000019480178491C0844091F50F8042CEE
:1017D000154800F095FA10B100F02EFA38BD2078C7
:1017E000012100F019FAE278A17810A000F0B0FB16
:1017F0001B4D012220212846FFF761F8E178A078EF
:1018000000F0F2FA8DF80000002220212846FFF7B0
:1018100056F89DF8001013A000F09AFB01216846CD
:1018200000F064FA38BD0000E0000020424C5F4444
:10183000454255475F4D53473A696E697469616C1B
:101840005F736563746F72203A20256420206E6F89
:101850005F6F66736563746F72733A2025640A0064
:1018600000000240424C5F44454255475F4D53479C
:101870003A20666C617368206572617365207374C9
:10188000617475733A202523780A000038B5044640
:101890000020ADF8000010480178491C0844091FD9
:1018A00050F8042C0C4800F02BFA10B100F0C4F9E9
:1018B00038BD2078022100F0AFF900F0DDFAADF874
:1018C00000000246014605A000F042FB02216846E6
:1018D00000F00CFA38BD0000E0000020424C5F44EC
:1018E000454255475F4D53473A4D43552069642063
:1018F0003A202564202523782021210A00000000B9
:1019000010B504460C480178491C0844091F50F8DA
:10191000042C094800F0F4F918B1BDE8104000F0BB
:101920008BB92078082100F077F9BDE81040082134
:10193000024800F0DBB90000E000002000000020B9
:1019400038B5044600208DF8000010480178491C85
:101950000844091F50F8042C0C4800F0D1F910B1CC
:1019600000F06AF938BD2078012100F055F900F047
:101970007BFA8DF800000246014605A000F0E8FA67
:101980000121684600F0B2F938BD0000E0000020F7
:10199000424C5F44454255475F4D53473A5244508D
:1019A000206C6576656C3A202564202523780A0032
:1019B00038B501780446491C0844091F50F8042C26
:1019C000204600F09DF910B100F036F938BD2078BE
:1019D000012100F021F920218DF800100A4604A011
:1019E00000F0B6FA0121684600F080F938BD000029
:1019F000424C5F44454255475F4D53473A424C5F26
:101A0000564552203A202564202523780A000000FC
:101A10001CB5044600208DF8000001208DF804005C
:101A200013480178491C0844091F50F8042C104839
:101A300000F066F910B100F0FFF81CBD207801211C
:101A400000F0EAF8D4F802400AA0214600F080FA3B
:101A5000204600F08BFA4FF0010118B101A800F008
:101A600045F91CBD684600F041F9641CA0471CBD47
:101A7000E0000020424C5F44454255475F4D5347CC
:101A80003A474F20616464723A202523780A0000A7
:101A9000F8B5044600208DF800001C48A679D4F85B
:101AA00002500178491C0844091F50F8042C1748BB
:101AB00000F026F910B100F0BFF8F8BD2078012140
:101AC00000F0AAF8294612A000F042FA284600F0D9
:101AD0004DFA38B101208DF800000121684600F070
:101AE00005F9F8BD144F012220213846FEF7E7FE24
:101AF00032462946E01D00F09DF98DF800000022D5
:101B000020213846FEF7DBFEE7E70000E00000207A
:101B1000424C5F44454255475F4D53473A206D65FF
:101B20006D207772697465206164647265737320D7
:101B30003A202523780A00000000024038B5044608
:101B40000F480178491C0844091F50F8042C0C4820
:101B500000F0D6F810B100F06FF838BD20780221FF
:101B600000F05AF800F0F5F9ADF80000014605A0C4
:101B700000F0EEF90221684600F0B8F838BD000028
:101B8000E0000020424C5F44454255475F4D5347BB
:101B90003A206E575250207374617475733A202541
:101BA00023780A0070B5084D2C6808A0214600F083
:101BB000CFF984F308886C680CA0214600F0C8F9BE
:101BC000A446BDE87040604700800008424C5F4476
:101BD000454255475F4D53473A4D53502076616C0F
:101BE0007565203A202523780A000000424C5F44A6
:101BF000454255475F4D53473A20617070207265EA
:101C00007365742068616E646C65722061646472CF
:101C1000203A202523780A0008B5A5208DF8000079
:101C20008DF801104FF0FF33022269460148FFF79B
:101C300077FA08BDA000002008B57F208DF80000CD
:101C40004FF0FF33012269460148FFF769FA08BDEA
:101C5000A0000020244C4FF0FF35C8212248FEF799
:101C6000EDFA21492B460122A1F14000FFF7FCF9D2
:101C70001D4822782B46611C4038FFF7F5F9607843
:101C800051380C28E9D2DFE800F0070B0F13171BBF
:101C90001F230627062BE0E71348FFF789FEDCE742
:101CA0001148FFF72DFED8E70F48FFF7EFFDD4E707
:101CB0000D48FFF745FED0E70B48FFF7A9FECCE73C
:101CC0000948FFF779FDC8E70748FFF7E1FEC4E7D9
:101CD0000548FFF733FDC0E70348FFF72FFFBCE7D8
:101CE0000148FFF7EDFCB8E7E00000208AB20146AA
:101CF0004FF0FF330148FFF713BA0000A0000020A7
:101D0000F8B50746FF2016460D46002407E0385D6B
:101D10000090012269460948FEF7E0FB641CAC42D2
:101D2000F5D3064909688A6842F001028A60B04228
:101D300001D10020F8BD0120F8BD000008000020FE
:101D400070B5284D274C0646083DB2B1FEF786FC1B
:101D50002868C003FCD4206820F000402060206880
:101D600040F47F002060206840F002002060286876
:101D7000C003FCD4FEF768FC03E0012903D002296C
:101D800016D0002070BDFEF769FC2868C003FCD4A3
:101D9000206820F000402060206820EA0640206093
:101DA000206840F0020020602868C003FCD4E1E70E
:101DB000FEF754FC2868C003FCD4206840F00040C3
:101DC0002060206820F47F002060206840EA064000
:101DD0002060206840F0020020602868C003FCD426
:101DE000C8E70000143C024010B586B008291FD88F
:101DF0000123FF281AD007281AD8C0F10802D2B24E
:101E0000914200D9114600220092CDE902010193CE
:101E1000FEF776FC0220049005A96846FEF79EFBBB
:101E20000446FEF707FC204606B010BD0093EEE71F
:101E30000420F9E72DE9F04116460F4680460025BB
:101E4000FEF75EFC002408E0002318F8042039198E
:101E50001846FEF717FC0546641CB442F4D3FEF79F
:101E6000E9FB2846BDE8F08102480068C0F307207E
:101E70007047000000C0FF1F02480068C0F30B005D
:101E800070470000002004E02DE9F041FEF72AFD34
:101E9000FFF704FAFFF7A2F9264D25484FF416572D
:101EA00028600024C5E901740C26EC60C5E90446ED
:101EB000AC61A5F14000EC61FFF763F800B1FEE70B
:101EC0001D482860C5E90174EC60C5E90446AC61B1
:101ED0001848EC61FFF755F800B1FEE715481749BF
:101EE00040300160C0E90174C460C0E90446846107
:101EF000C461FFF746F800B1FEE7124910480860D8
:101F00000846FEF704FB00B1FEE74FF400510E480F
:101F1000FEF7D0FC20B1FFF745FE0020BDE8F081C0
:101F2000012220210948FEF7CAFCFFF793FE0000BA
:101F300000100140600000200044004000140140F7
:101F4000003002400800002000080240000002406B
:101F5000704700B587B0FEF781FB6846FEF74AFB85
:101F6000FEF768FB029807B080B200BDA0F10051F7
:101F7000B1F5C03F09D9A0F10061B1F5002F04D33C
:101F800004490844B0F5805F01D800207047012063
:101F9000704700000000B8BD000000000000000015
:101FA00001020304060708090000000001020304FF
:101FB000D01F00080000002020000000A01600082C
:101FC000F01F000820000020A8050000B01600083F
:101FD000515253545556575A00000000000000005B
:101FE0000100000010000000000000000024F400C8
:040000050800019559
:00000001FF
